{
  "contractName": "NUM2",
  "abi": [
    {
      "inputs": [
        {
          "internalType": "uint256",
          "name": "_newum",
          "type": "uint256"
        }
      ],
      "name": "update",
      "outputs": [],
      "stateMutability": "nonpayable",
      "type": "function"
    },
    {
      "inputs": [],
      "name": "get",
      "outputs": [
        {
          "internalType": "uint256",
          "name": "",
          "type": "uint256"
        }
      ],
      "stateMutability": "view",
      "type": "function"
    },
    {
      "inputs": [],
      "name": "increment",
      "outputs": [],
      "stateMutability": "nonpayable",
      "type": "function"
    }
  ],
  "bytecode": "0x608060405234801561001057600080fd5b506101df806100206000396000f3fe608060405234801561001057600080fd5b50600436106100415760003560e01c80636d4ce63c1461004657806382ab890a14610064578063d09de08a14610080575b600080fd5b61004e61008a565b60405161005b91906100cd565b60405180910390f35b61007e60048036038101906100799190610119565b610093565b005b61008861009d565b005b60008054905090565b8060008190555050565b60016000546100ac9190610175565b600081905550565b6000819050919050565b6100c7816100b4565b82525050565b60006020820190506100e260008301846100be565b92915050565b600080fd5b6100f6816100b4565b811461010157600080fd5b50565b600081359050610113816100ed565b92915050565b60006020828403121561012f5761012e6100e8565b5b600061013d84828501610104565b91505092915050565b7f4e487b7100000000000000000000000000000000000000000000000000000000600052601160045260246000fd5b6000610180826100b4565b915061018b836100b4565b92508282019050808211156101a3576101a2610146565b5b9291505056fea2646970667358221220ca2fe3d7b5e97ef0d72813d6d38d40cb76236fc967e8fa9a8e64f075fd18532264736f6c63430008110033",
  "immutableReferences": {},
  "source": "// SPDX-License-Identifier: MIT\npragma solidity ^0.8.17;\n\ncontract NUM2 {\n\n        uint256 private num1;\n\n        function update(uint256 _newum) public {\n            num1 = _newum;\n        }\n\n        function get() public view returns(uint256){\n             return num1;\n        }\n\n        function increment()  public {\n            num1=num1+1;\n        }\n}",
  "sourcePath": "/home/hp/Documents/blockchain/Proxy smart contract/proxy/contracts/NUM2.sol",
  "compiler": {
    "name": "solc",
    "version": "0.8.17+commit.8df45f5f.Emscripten.clang"
  },
  "schemaVersion": "3.4.11",
  "updatedAt": "2023-04-14T06:20:17.816Z",
  "devdoc": {
    "kind": "dev",
    "methods": {},
    "version": 1
  },
  "userdoc": {
    "kind": "user",
    "methods": {},
    "version": 1
  }
}